:020000040800F2
:10000000A8670020413A0008CD020008CF0200088E
:10001000D3020008D7020008DB020008000000003D
:10002000000000000000000000000000DF020008E7
:10003000E102000800000000E3020008E5020008F9
:100040005B3A00085B3A00085B3A00085B3A00083C
:100050005B3A00085B3A00085B3A00085B3A00082C
:100060005B3A00085B3A00085B3A00085B3A00081C
:100070005B3A00085B3A00085B3A00085B3A00080C
:100080005B3A00085B3A00085B3A00085B3A0008FC
:100090005B3A00085B3A00085B3A00085B3A0008EC
:1000A0005B3A00085B3A00085B3A00085B3A0008DC
:1000B0005B3A0008F13400085B3A00085B3A00083C
:1000C0005B3A00085B3A00085B3A00085B3A0008BC
:1000D0005B3A0008B73900085B3A00085B3A000851
:1000E0005B3A00085B3A00085B3A00085B3A00089C
:1000F0005B3A00085B3A00085B3A00085B3A00088C
:100100005B3A00085B3A00085B3A00085B3A00087B
:100110005B3A00085B3A00085B3A00085B3A00086B
:100120005B3A00085B3A00085B3A00085B3A00085B
:100130005B3A00085B3A00085B3A00085B3A00084B
:100140005B3A00085B3A00085B3A00085B3A00083B
:100150005B3A00085B3A00085B3A00085B3A00082B
:100160005B3A00085B3A00085B3A00085B3A00081B
:100170005B3A00085B3A00085B3A00085B3A00080B
:100180005B3A00085B3A000800F002F800F061F802
:100190000AA090E8000C82448344AAF10107DA45E2
:1001A00001D100F056F8AFF2090EBAE80F0013F0D3
:1001B000010F18BFFB1A43F00103184784B3020074
:1001C000A4B302000A444FF0000C10F8013B13F0F6
:1001D000070408BF10F8014B1D1108BF10F8015BA0
:1001E000641E05D010F8016B641E01F8016BF9D193
:1001F00013F0080F1EBF10F8014BAD1C0C1B09D1EA
:100200006D1E58BF01F801CBFAD505E014F8016B5B
:1002100001F8016B6D1EF9D59142D6D370470000ED
:100220000023002400250026103A28BF78C1FBD8FF
:10023000520728BF30C148BF0B607047782925F0AE
:100240004B84002070471FB526F053F91FBD10B531
:1002500010BD25F0EDFD1146FFF7F5FF00F008F8A1
:1002600025F00BFE03B4FFF7F2FF03BC03F044FBE1
:100270004FF4A06003F004FCA82003F0BBFA4FF495
:10028000E13003F046FB532140F2E73003F004F97C
:1002900000F032F9012001F0D3FC00F04DF90A49D9
:1002A0000868804703F034F908F0F4FF25F07EF980
:1002B00025F046FA25F0DEFA05E003484168002003
:1002C00088471BF0E5FEF8E718000020704700BFE4
:1002D000FEE700BFFEE700BFFEE700BFFEE7704796
:1002E00070477047704700000CB5002001900090E7
:1002F0007648006840F480307449086000BF734855
:10030000006800F4003000900198401C01900098B3
:1003100018B90198B0F5A04FF1D16C48006800F40D
:10032000003010B10120009001E000200090009802
:10033000012846D165484030006840F0805063494C
:10034000403108606248006840F4404060490860FD
:100350005E48083000685D4908310860084600685A
:1003600040F4004008600846006840F4A05008606F
:100370005848091F0860081F006840F08070091F76
:10038000086000BF5148006800F000700028F9D0F4
:1003900040F20570504908604C480830006820F071
:1003A00003004A49083108600846006840F002002E
:1003B000086000BF45480830006800F00C000828BD
:1003C000F8D10CBD10B54548006840F470004349B1
:1003D00008603E48006840F001003C490860002089
:1003E0003A4908310860394800683D4908403749B2
:1003F00008603C48091D0860081F006820F4802040
:10040000091F0860002031490C310860FFF76CFFBC
:100410004FF0006031498039086010BD70B5002090
:100420000022022300240221284D08352D6805F002
:100430000C0020B1042806D0082834D107E02A4D4A
:100440002A4E356033E02A4D284E35602FE01F4D8F
:100450002D1D2D68C5F380541C4D2D1D2D6805F0F4
:100460003F0154B1224DB5FBF1F5184E361D3668EB
:10047000C6F3881605FB06F209E01B4DB5FBF1F546
:10048000124E361D3668C6F3881605FB06F20F4D70
:100490002D1D2D68C5F301456D1C6B00B2FBF3F5F6
:1004A000124E356003E0104D104E356000BF00BFA6
:1004B000064D08352D68C5F303150E4E705D0B4DC6
:1004C0002D68C540094E356070BD000000380240FF
:1004D0000070004008544007003C024088ED00E0F6
:1004E000FFFFF6FE103000240024F400000000207E
:1004F00000127A00040000201CB50121202004F025
:1005000037F94FF4C060009001208DF804000020FE
:100510008DF8060003208DF8050001208DF80700F6
:100520006946044803F0A2FB4FF4C061014803F0A0
:1005300019FC1CBD001402401CB50121112004F05F
:1005400017F91C20009000208DF8040003208DF87E
:10055000050001208DF807006946354803F086FB49
:100560000120009002208DF807006946314803F011
:100570007DFB1CBD10B5044614B101202E49087046
:100580002D480078002837D01021294803F0D0FBEF
:1005900078B10821264803F0CBFB50B10421244850
:1005A00003F0C6FB28B10121224803F0C1FB01285A
:1005B00022D10A2003F080F900201F490870102181
:1005C0001B4803F0B5FB08B9012010BD08211848ED
:1005D00003F0AEFB08B90220F7E70421144803F04A
:1005E000A7FB08B90320F0E70121124803F0A0FBA4
:1005F00001281BD10420E8E710210D4803F098FBE7
:10060000012813D108210A4803F092FB01280DD1DB
:100610000421074803F08CFB012807D1012105487C
:1006200003F086FB10B90120034908700020CCE7D5
:100630000010024000000240140000201CB50121FF
:10064000022004F095F84FF44070009001208DF8DE
:10065000040000208DF8060003208DF8050001201D
:100660008DF807006946894803F000FB012088499E
:1006700008608849C1F8A4021CBD10B58348006811
:1006800020F44020814908600846006840F480203A
:10069000086001207E49091D08607E49C1F8A0025A
:1006A000042003F0C1F800207949091D08600420E6
:1006B00003F0BAF800207749C1F8A00210BD10B5C8
:1006C0007248006820F440207049086008460068BD
:1006D00040F48020086000206D4908606D49C1F831
:1006E000A402042003F0A0F80120694908606949C8
:1006F000C1F8A402042003F097F810BD10B500243F
:100700006248006820F4402060490860084600689C
:10071000086001205E49091D086003F085F801208A
:100720005C49C1F8A00203F07FF807E0601CC4B286
:10073000FA2C03DDFFF7C3FF012010BD54487C38BD
:1007400000680028F2D15249086000BFF5E710B5F3
:1007500000204F4908604D48006820F440204B4974
:1007600008600846006840F480200860002049497D
:10077000C1F8A402022003F057F8012044490860A0
:10078000022003F051F800204249C1F8A00210BD38
:1007900010B500203E4908603C48006820F4402025
:1007A0003A4908600846006840F48020086001204B
:1007B0003849C1F8A402022003F036F80120344978
:1007C0000860022003F030F800203249C1F8A0028E
:1007D00010BD70B504462D48006820F440202B4918
:1007E00008600846006840F480200860002028491E
:1007F0000860002517E0E0092549091D086060062A
:10080000040E022003F010F801202249C1F8A002D2
:10081000022003F009F800201D490860022003F0BF
:1008200003F8681CC5B2082DE5DB70BD70B5054640
:1008300000241648006820F4402014490860084647
:1008400000680860002616E00020114908600220B8
:1008500002F0EAFF01200F49C1F8A0026006040E71
:100860000B487C38006808B1601CC4B2012002F05B
:10087000DBFF701CC6B2082EE6DB15B9FFF788FF58
:1008800001E0FFF764FF204670BD00000004024055
:10089000A08240420080404210B5FFF7CFFE10BD5D
:1008A00070B504460026FFF7E8FE2546E11704EB85
:1008B00011610912A02202EB4101C8B2FFF789FFC2
:1008C000FFF71CFFE11704EB11610912A4EB0121F2
:1008D000C8B2FFF77EFFFFF711FFFFF7CEFEA120A2
:1008E000FFF777FFFFF70AFF0020FFF79FFF06469D
:1008F000FFF7E5FE304670BD70B504460E46FFF7C3
:10090000BCFE2546E11704EB11610912A02202EB9F
:100910004101C8B2FFF75DFFFFF7F0FEE11704EBFE
:1009200011610912A4EB0121C8B2FFF752FFFFF7D2
:10093000E5FE3046FFF74DFFFFF7E0FEFFF7BFFE95
:100940000A2002F0B9FF70BD2DE9F04105460E46C0
:100950001746002409E0E20026FA02F2D1B22A1971
:1009600090B2FFF7C9FF601CC4B2BC42F3DBBDE824
:10097000F0812DE9F04107460C460026002509E0EC
:1009800036023919491B491E88B2FFF789FF064410
:10099000681CC5B2A542F3DB3046BDE8F08110B556
:1009A000FF20FFF77DFF0446552C01D1002010BD2C
:1009B0005521FF20FFF7A0FFFF20FFF771FF04463E
:1009C000552C01D10020F2E70120F0E770B5064672
:1009D0000C46154608E03046721C96B2FFF760FFE1
:1009E00004F8010B681E85B2002DF4D170BD70B5FE
:1009F00005460C46164606E021782846FFF77CFFA0
:100A0000681C85B2641C3000A6F101018EB2F3D1DE
:100A100070BD000070B50446002500BF17E004F06B
:100A2000800018B10120FE49086002E00020FC4966
:100A300008606006040E0020FA490860012002F0F8
:100A4000F3FE0120F849C1F88002681CC5B2082DE8
:100A5000E5DB70BD70B50646002500240020F14995
:100A60000860F249C1F8AC02F14908603046FFF76E
:100A7000D1FF062002F0D8FE0020EB49C1F8800229
:100A8000012002F0D1FE0120E649086002F0CCFE10
:100A90000020E549C1F8800200BF15E04FF6FF7065
:100AA00000EA44040020DF490860012002F0BCFE97
:100AB0000120DD49C1F88002DA487838006808B1C1
:100AC000601C84B2681CC5B2102DE7DB2411012024
:100AD000D7490860204670BD2DE9FE4380460027B7
:100AE000002406E04046FFF7B5FF2DF81400601C17
:100AF00084B2052CF6DB002416E0601C85B20FE002
:100B00003DF814003DF81510884207DD3DF81460EB
:100B10003DF815002DF814002DF81560681C85B2FD
:100B2000052DEDDB601C84B2042CE6DB00270124DC
:100B300005E03DF81400384487B2601C84B2042CF0
:100B4000F7DB032097FBF0F086B23046BDE8FE836A
:100B50002DE9F04104460D46B6480078FFF7BCFF8A
:100B60000646B5480078FFF7B7FF074626802F8076
:100B70000120BDE8F0817FB504460D4602A903A817
:100B8000FFF7E6FF064616B9002004B070BD6946BF
:100B900001A8FFF7DDFF06460EB90020F5E7BDF816
:100BA0000400BDF80C10884206DCBDF80C10BDF83E
:100BB0000400323081420CDBBDF80C00BDF804109B
:100BC000884236DCBDF80410BDF80C00323081429A
:100BD0002FDABDF80000BDF80810884206DCBDF829
:100BE0000810BDF80000323081420CDBBDF808006F
:100BF000BDF8001088421CDCBDF80010BDF80800EC
:100C00003230814215DABDF80C10BDF80420881886
:100C100000EBD071C1F34F012180BDF80810BDF881
:100C20000020881800EBD071C1F34F01298001200A
:100C3000ABE70020A9E7F8B504460D4616467F4805
:100C40000680008804F10D018AB21939009088B23B
:100C50002B46294602F005F978480088009005F1F6
:100C60000D0083B2193881B22246204602F0F9F80D
:100C70006A1C91B2621C90B202F0C2F86A1C91B276
:100C8000621E90B202F0BCF86A1E91B2621C90B271
:100C900002F0B6F86A1E91B2621E90B202F0B0F88D
:100CA0006648038806222946204602F030F9F8BD3E
:100CB00070B504460D461646604806802946204613
:100CC00002F09EF8611C88B2294602F099F8681C6F
:100CD00081B2204602F094F86A1C91B2621C90B274
:100CE00002F08EF870BD10B504464E487C3800689E
:100CF00000284ED12CB15249A1F10A00FFF73BFF69
:100D000035E04F49A1F10A00FFF735FF78B34C48B1
:100D10001638B0F92C0000EE100AB8EEC00A4848A8
:100D2000163890ED091A808900EE900AF8EE600AF4
:100D300001EE200ABCEEC00A10EE100A4049163936
:100D400088810846B0F92E0000EE100AB8EEC00AFD
:100D5000084690ED0A1AC08A00EE900AF8EE600A82
:100D600001EE200ABCEEC00A10EE100AC882344818
:100D7000163890F8200000F0800038BBC0203049C1
:100D8000163981F82000084681898182C18AC18391
:100D90001CE02B48163890F8200000F0800050B17D
:100DA0002748163890F8200020F080002449163992
:100DB00081F820000AE00021214816388182C18391
:100DC0004FF6FF701E4916398881C8821C481638B4
:100DD00090F8200000F0800010BD10B518481638BB
:100DE00090ED090ADFED170A20EE200ABDEEC00AD9
:100DF00010EE104A042221462820FFF7A5FD1048D6
:100E0000163890ED0A0ADFED0F0A20EE200ABDEE3B
:100E1000C00A10EE104A042221462C2014E00000E3
:100E2000AC82424280824042008040420080424286
:100E3000B40241424C0000204D0000204E00002032
:100E40002E00002020BCBE4CFFF77EFDF648B0F916
:100E50002C1002223020FFF777FDF348B0F92E1056
:100E600002223220FFF770FDEF4890F83010342056
:100E7000FFF742FD0A2421463520FFF73DFD10BD56
:100E800010B53520FFF70CFD04460A2C46D104218D
:100E90002820FFF76EFD044600EE104AB8EEC00AA7
:100EA0005FED180A80EE201ADF4880ED091A042150
:100EB0002C20FFF75EFD044600EE104AB8EEC00A93
:100EC0005FED200A80EE201AD74880ED0A1A022131
:100ED0003020FFF74EFD00B2D34988850221322031
:100EE000FFF747FD00B2D049C8853420FFF7D8FC92
:100EF000CD4981F83000084690F8300030B190209C
:100F0000CA490870D020CA49087005E0D020C749F6
:100F100008709020C6490870012010BD0020FCE731
:100F20002DE9FE4F04460D4617461E46DDE90EAB81
:100F3000DDE90C894FF47840BE4908800120BEA14C
:100F40001022CDE900210290BC4843880288A021EC
:100F5000282002F0DEF80120B9A11022CDE90021FD
:100F60000290B64843880288A021782002F0D1F888
:100F70000120B4A11022CDE900210290AF4843889E
:100F80000288B421282002F0C4F80120AEA110226A
:100F9000CDE900210290A94843880288B421782035
:100FA00002F0B7F80120A9A11022CDE9002102909A
:100FB000A24843880288C821282002F0AAF801200C
:100FC000A3A11022CDE9002102909C484388028809
:100FD000C821782002F09DF801209EA11022CDE9C1
:100FE00000210290954843880288DC21282002F0E5
:100FF00090F8012098A11022CDE9002102908F489D
:1010000043880288DC21782002F083F8012093A134
:101010001022CDE900210290884843880288F021FF
:10102000282002F076F8102004232246A021009008
:10103000402002F0BEF8102004232A46A021009090
:10104000902002F0B6F8102004233A46B421009014
:10105000402002F0AEF8102004233246B421009064
:10106000902002F0A6F8102004234246C8210090E8
:10107000402002F09EF8102004234A46C821009028
:10108000902002F096F8102004235246DC210090B4
:10109000402002F08EF8102004235A46DC210090F4
:1010A000902002F086F8102003230090F0216020A9
:1010B000109A02F07EF8BDE8FE8F00B597B00020D0
:1010C00012900B9012901F215A4801804FF6FF7129
:1010D00064480180084600F04BFD4FF478405549C4
:1010E00008804FF6FF7000F043FD00215148018059
:1010F00001205D49096810226423CDE90021029096
:10110000A0222821084602F004F84FF47842142166
:101110000846FFF790FD0020434981F820009FED2D
:10112000530A084680ED090A54E23F4840680A9095
:1011300001200A9988473C4890F8200000F0C00040
:1011400040286FD100200B90374890F8200020F005
:101150004000354981F820000846818913AA129879
:1011600022F820103048C18A129802EB800041809A
:101170001298401CC0B212901298012806D0022882
:1011800015D0032829D0042810D141E04FF6FF7272
:1011900014210846FFF74FFD28480088143880B214
:1011A0004FF4784214210A90FFF745FDF0E32348FD
:1011B0000088143880B24FF6FF7214210A90FFF7AE
:1011C0003AFD1E484088143880B24FF478420146F8
:1011D0000A901420FFF72FFDDAE3184840881438EE
:1011E00080B24FF6FF7201460A901420FFF723FDEC
:1011F00012484088143880B20A9010480088143889
:1012000080B24FF4784209900A99FFF714FDBFE3CA
:10121000BDF84C00BDF85010401A0A90002827DB9A
:101220000A9827E0B5E30000180000204C000020D9
:101230004D0000204E00002078313A009801002037
:1012400079313A0078323A0079323A0078333A000C
:1012500079333A0078343A0079343A006661632091
:1012600069733A0050000020FC640208000000008E
:101270000A9840420F90BDF84E1013A8C088081A73
:101280000A90002801DB0A9801E00A9840420E907B
:101290000F9840430F900E9840430E90DDE90E10DA
:1012A0000844059024F065FECDE906019DED060B8E
:1012B00024F0E9FD8DED080B9DED080B51EC100BB2
:1012C00024F02AFE80B21190BDF85400BDF85810E9
:1012D000401A0A90002801DB0A9801E00A9840426F
:1012E0000F9013A84189C089081A0A90002801DBD1
:1012F0000A9801E00A9840420E900F9840430F90E0
:101300000E9840430E90DDE90E100844059024F03D
:1013100030FECDE906019DED060B24F0B4FD8DED08
:10132000080B9DED080B51EC100B24F0F5FD80B27D
:1013300010909DED110AF8EE400A9DED100AB8EEEE
:10134000401A80EE810A8DED0A0A0A9825F060F8AD
:10135000CDE90C019FEDFE0B53EC102B9DED0C0B1A
:1013600051EC100B24F018FE0ED39FEDFB0B53EC49
:10137000102B9DED0C0B51EC100B24F047FF03D309
:10138000119808B11098E8BB00201290F4484088EA
:10139000143880B20A90F2480088143880B24FF6B0
:1013A000FF7209900A99FFF746FC4FF47842142126
:1013B0000846FFF740FC9FEDEB0B53EC102B9DED27
:1013C0000C0B51EC100B24F023FECDE908019DED30
:1013D000080B51EC100B24F09FFD80B213A90A906A
:1013E000C989BDF8582013AB5B89CDE90132CDE93D
:1013F0000310BDF85400009013A8C0880990BDF8F0
:10140000500000E00BE00890BDF84E000790BDF8DA
:101410004C00069007A90EC9FFF782FDC8E2BDF88F
:101420004C00BDF85410401A0A90002801DB0A98BD
:1014300001E00A9840420F90BDF84E1013A8408971
:10144000081A0A90002801DB0A9801E00A98404235
:101450000E900F9840430F900E9840430E90DDE998
:101460000E100844059024F084FDCDE906019DEDA1
:10147000060B24F008FD8DED080B9DED080B51ECDB
:10148000100B24F049FD80B21190BDF85010BDF84A
:101490005800081A0A90002801DB0A9801E00A980F
:1014A00040420F9013A8C188C089081A0A900028EA
:1014B00001DB0A9801E00A9840420E900F984043E1
:1014C0000F900E9840430E90DDE90E1008440590F1
:1014D00024F04FFDCDE906019DED060B24F0D3FC71
:1014E0008DED080B9DED080B51EC100B24F014FD55
:1014F00080B210909DED110AF8EE400A9DED100AA1
:10150000B8EE401A80EE810A8DED0A0A0A9824F09E
:101510007FFFCDE90C019FED8E0B53EC102B9DED61
:101520000C0B51EC100B24F037FD0AD39FED8A0B06
:1015300053EC102B9DED0C0B51EC100B24F066FEC0
:1015400049D20020129086484088143880B20A9010
:1015500083480088143880B24FF6FF7209900A99C8
:10156000FFF769FB4FF4784214210846FFF763FB4D
:101570009FED7C0B53EC102B9DED0C0B51EC100BE5
:1015800024F046FDCDE908019DED080B51EC100B50
:1015900024F0C2FC80B201460A9013A8C289BDF8AB
:1015A000580013AB5B89CDE90130CDE90321BDF8CB
:1015B0005400009013A8C0880990BDF8500008900E
:1015C000BDF84E000790BDF84C00069007A90EC963
:1015D000FFF7A6FCECE1BDF85000BDF85410401A2E
:1015E0000A90002801DB0A9801E00A9840420F9017
:1015F00013A8C1884089081A0A90002801DB0A98BC
:1016000001E00A9840420E900F9840430F900E98C8
:1016100040430E90DDE90E100844059024F0A9FC2B
:10162000CDE906019DED060B24F02DFC8DED080B98
:101630009DED080B51EC100B24F06EFC80B2119064
:10164000BDF84C00BDF85810401A0A90002801DB84
:101650000A9801E00A9840420F90BDF84E1013A876
:10166000C089081A0A90002801DB0A9801E00A984C
:1016700040420E900F9840430F900E9840430E90BA
:10168000DDE90E100844059024F073FCCDE9060155
:101690009DED060B24F0F7FB8DED080B9DED080B7F
:1016A00051EC100B24F038FC80B210909DED110A23
:1016B000F8EE400A9DED100AB8EE401A80EE810A5D
:1016C0008DED0A0A0A9824F0A3FECDE90C019FEDE6
:1016D000200B53EC102B9DED0C0B51EC100B24F058
:1016E0005BFC0AD39FED1C0B53EC102B9DED0C0BF8
:1016F00051EC100B24F08AFD57D2002012901848AC
:101700004088143880B20A9015480088143880B296
:101710004FF6FF7209900A99FFF78DFA4FF478425D
:1017200014210846FFF787FA9FED0E0B53EC102BA0
:101730009DED0C0B51EC100B24F06AFCCDE9080177
:101740009DED080B51EC100B24F0E6FB80B20DE090
:10175000666666666666EE3FCDCCCCCCCCCCF03F00
:1017600098010020000000000000594013A90A90D1
:10177000CA89BDF8581013AB5B89CDE90131CDE9B9
:101780000320BDF85400009013A8C0880990BDF84C
:1017900050000890BDF84E000790BDF84C00069030
:1017A00007A90EC9FFF7BCFB02E1BDF85000BDF868
:1017B0004C10401A00EE100AF8EEC00AA748008844
:1017C000283800EE100AB8EEC00A80EE201AA448AD
:1017D00080ED091ABDF85000BDF84C10084400EE29
:1017E000100AF8EEC00A9D48008800EE100AB8EE14
:1017F000400A9B4890ED091A01EE600AF0EE000ADB
:1018000080EE201ABDEEC10A10EE100A01B2944813
:10181000818513A84089BDF84E10401A00EE100AC9
:10182000F8EEC00A8D484088283800EE100AB8EE5D
:10183000C00A80EE201A8A4880ED0A1A13A840894F
:10184000BDF84E10084400EE100AF8EEC00A8348B6
:10185000408800EE100AB8EE400A814890ED0A1A5E
:1018600001EE600AF0EE000A80EE201ABDEEC10A19
:1018700010EE100A00B27A49C885084690ED090AB0
:10188000BDEEC00A8DED090A0998002801DB099810
:1018900001E00998404202280FDC714890ED0A0AE5
:1018A000BDEEC00A8DED0A0A0A98002801DB0A98ED
:1018B00001E00A984042022844DD00201290674867
:1018C0004088143880B20A9064480088143880B286
:1018D0004FF6FF7209900A99FFF7ADF94FF478427D
:1018E00014210846FFF7A7F901205EA11022CDE9D7
:1018F00000210290594840880A9058480088099071
:1019000002461A2128200A9B01F003FC544890F853
:10191000300008B9012000E00020514981F8300072
:10192000084690F8300030B1902053490870D0201C
:101930005249087005E0D0204F49087090204F4967
:10194000087035E01F204E4908804FF6FF7000F008
:101950000FF901204BA21021CDE9001202903F485F
:1019600040880A903D480088099002466E21232055
:101970000A9B01F0CEFB4FF47A7001F09DFFFFF758
:101980002CFA4FF6FF7000F0F3F817B000BDFFE738
:1019900000BF0A2001F090FF0B98401C80B20B9012
:1019A0000B98B0F57A7F02DDFFF76AFA02E000BF1C
:1019B000FFF7BBBB00BF00BFE7E71CB50121262036
:1019C00002F0D6FE0620009000208DF804008DF86D
:1019D000060003208DF8050001208DF807006946F8
:1019E0002E4802F043F9012000908DF8040069466A
:1019F0002A4802F03BF94FF40050009001208DF886
:101A000004006946264802F031F94FF40060009066
:101A100001208DF804006946224802F027F9104998
:101A20001631A1F10A00FFF793F8FEF735FF1021F8
:101A30001D4802F07DF9012804D1FFF721FA08B111
:101A400000201CBD4FF6FF7000F092F8FFF735FB49
:101A5000FFF7C3F9FFF714FA0120F2E7980100201D
:101A6000180000205450204E656564207265616442
:101A70006A757374210000004C0000204D000020A6
:101A80004E000020546F7563682053637265656E65
:101A90002041646A757374204F4B2100000402409A
:101AA0000008024000140240001002404FF4A071F0
:101AB000FE4A11804FF4F071518045F2103191804F
:101AC000114688712A2151812B2191812C2111816C
:101AD000704701B5BDF800000090BDF80000F44962
:101AE000088008BD01B5BDF800000090BDF80000F9
:101AF000EF49891C088008BD08B5ED48801C0088A6
:101B00000090BDF8000008BDE94A10804FF0D842AF
:101B1000A2F88010704710B504462046FFF7D9FFA1
:101B2000052001F081FEFFF7E7FF10BDDF480089C7
:101B3000DF4908807047DE49891C08807047DB4A0E
:101B40005289DB4B1A8002124FF0D843A3F8802051
:101B5000C2B2A3F88020D54A9289D54B1A800A12C6
:101B60009B1C1A80CAB24FF0D843A3F8802070475C
:101B700070B504460025CD484088CC49098800FB53
:101B800001F600210846FFF7DAFFC8480089C84976
:101B9000088000BF03E0C648801C04806D1CB5426D
:101BA000F9D370BD10B50446012C04D100213620B4
:101BB000FFF7AAFF04E01CB960213620FFF7A4FF5D
:101BC000BA494889FFF785FF0020FFF78BFF002007
:101BD000FFF788FFB5490988491EC1F30F20FFF7B9
:101BE00081FFB2490978491EC8B2FFF77BFFAF49B0
:101BF0008889FFF76EFF0020FFF774FF0020FFF7D2
:101C000071FFAA494988491EC1F30F20FFF76AFFF7
:101C1000A6498978491EC8B2FFF764FF10BD10B508
:101C200004464CB944B94FF4F070A04908804FF411
:101C3000A0704880002088712046FFF7B3FF10BDD8
:101C400010B5A0B004462046FFF730FF01217A20EE
:101C500002F08EFD0121084602F0C2FD4FF4004063
:101C60001E9001208DF87C0000208DF87E0002205F
:101C70008DF87D0001208DF87F001EA98D4801F0B0
:101C8000F5FF4CF233701E9002208DF87C0000208E
:101C90008DF87E0003208DF87D0001208DF87F00F7
:101CA0001EA9854801F0E2FF4FF680701E900220C9
:101CB0008DF87C0000208DF87E0003208DF87D00DB
:101CC00001208DF87F001EA97C4801F0CFFF4FF462
:101CD00080501E9002208DF87C0000208DF87E0040
:101CE00003208DF87D0001208DF87F001EA9744827
:101CF00001F0BCFF4FF480501E9002208DF87C0054
:101D000000208DF87E0003208DF87D0001208DF8E5
:101D10007F001EA96B4801F0A9FF0C220021664834
:101D200002F02FF80C220121634802F02AF80C225D
:101D30000421614802F025F80C2205215E4802F0DA
:101D400020F80C2208215C4802F01BF80C22092123
:101D5000594802F016F80C220A21574802F011F8EF
:101D60000C220E21544802F00CF80C220F2152488C
:101D700002F007F80C220721504802F002F80C226A
:101D800008214E4801F0FDFF0C2209214B4801F0CB
:101D9000F8FF0C220A21494801F0F3FF0C220B2125
:101DA000464801F0EEFF0C221146444801F0E9FFDD
:101DB0000C220D21414801F0E4FF0C220E213F4886
:101DC00001F0DFFF0C220F213C4801F0DAFF0C226A
:101DD00011463B4801F0D5FF0C221146394801F06D
:101DE000D0FF032008900020099009200A900020CD
:101DF0000B900C900D900E9003200190002002900B
:101E0000052003900020049005900690079006207E
:101E10000F9000201090119010201290002013902D
:101E200015901490169017904FF480501890002041
:101E300019904FF480401A9000201B9008A81C9025
:101E400001A81D900FA801F0F0FF0121062002F06B
:101E500077F80120FFF73DFE1E2001F02DFD13480D
:101E6000818819A023F0F8FD1048808845F21031D0
:101E7000884240F08F87ED20FFF72BFE0120FFF70F
:101E800031FEFE20FFF72EFEEE20FFF722FEDE20C1
:101E9000FFF728FE2120FFF725FEF120FFF719FEAE
:101EA0000120FFF71FFEDF2016E000009801002050
:101EB0007E00006C00040240000C02400010024052
:101EC00000140240001802404C43442049443A2583
:101ED00078200D0A00000000FFF7FBFD1020FFF73F
:101EE00001FEC420FFF7F5FD8F20FFF7FBFDC620A4
:101EF000FFF7EFFD0020FFF7F5FDE220FFF7F2FD11
:101F0000E220FFF7EFFDE220FFF7ECFDBF20FFF737
:101F1000E0FDAA20FFF7E6FDB020FFF7DAFD0D2077
:101F2000FFF7E0FD0020FFF7DDFD0D20FFF7DAFDF4
:101F30000020FFF7D7FD1120FFF7D4FD0020FFF7A9
:101F4000D1FD1920FFF7CEFD0020FFF7CBFD2120AA
:101F5000FFF7C8FD0020FFF7C5FD2D20FFF7C2FDEC
:101F60000020FFF7BFFD3D20FFF7BCFD0020FFF77D
:101F7000B9FD5D20FFF7B6FD0020FFF7B3FD5D2042
:101F8000FFF7B0FD0020FFF7ADFDB120FFF7A1FD89
:101F90008020FFF7A7FD0020FFF7A4FD8B20FFF7AF
:101FA000A1FD0020FFF79EFD9620FFF79BFD00207E
:101FB000FFF798FDB220FFF78CFD0020FFF792FDA0
:101FC0000020FFF78FFD0220FFF78CFD0020FFF7B8
:101FD00089FD0320FFF786FD0020FFF783FDB32076
:101FE000FFF777FD0020FFF77DFD0020FFF77AFD6A
:101FF0000020FFF777FD0020FFF774FD0020FFF7BA
:1020000071FD0020FFF76EFD0020FFF76BFD002043
:10201000FFF768FD0020FFF765FD0020FFF762FD78
:102020000020FFF75FFD0020FFF75CFD0020FFF7B9
:1020300059FD0020FFF756FD0020FFF753FD00205B
:10204000FFF750FD0020FFF74DFD0020FFF74AFD90
:102050000020FFF747FD0020FFF744FD0020FFF7B9
:1020600041FD0020FFF73EFD0020FFF73BFD002073
:10207000FFF738FDB420FFF72CFD8B20FFF732FD72
:102080000020FFF72FFD9620FFF72CFD0020FFF723
:1020900029FDA120FFF726FD0020FFF723FDB52035
:1020A000FFF717FD0220FFF71DFD0020FFF71AFDC7
:1020B0000320FFF717FD0020FFF714FD0420FFF7B2
:1020C00011FD0020FFF70EFDB620FFF702FD0020F6
:1020D000FFF708FD0020FFF705FDB720FFF7F9FC2B
:1020E0000020FFF7FFFC0020FFF7FCFC3F20FFF77C
:1020F000F9FC0020FFF7F6FC5E20FFF7F3FC002060
:10210000FFF7F0FC6420FFF7EDFC0020FFF7EAFC8E
:102110008C20FFF7E7FC0020FFF7E4FCAC20FFF782
:10212000E1FC0020FFF7DEFCDC20FFF7DBFC0020F9
:10213000FFF7D8FC7020FFF7D5FC0020FFF7D2FC9A
:102140009020FFF7CFFC0020FFF7CCFCEB20FFF73F
:10215000C9FC0020FFF7C6FCDC20FFF7C3FC002011
:10216000FFF7C0FCB820FFF7B4FC0020FFF7BAFC73
:102170000020FFF7B7FC0020FFF7B4FC0020FFF7BA
:10218000B1FC0020FFF7AEFC0020FFF7ABFC002005
:10219000FFF7A8FC0020FFF7A5FCBA20FFF799FC89
:1021A0002420FFF79FFC0020FFF79CFC0020FFF796
:1021B00099FC0020FFF796FCC120FFF78AFC202045
:1021C000FFF790FC0020FFF78DFC5420FFF78AFCFE
:1021D0000020FFF787FCFF20FFF784FC0020FFF7BB
:1021E00081FCC220FFF775FC0A20FFF77BFC002072
:1021F000FFF778FC0420FFF775FC0020FFF772FC66
:10220000C320FFF766FC3C20FFF76CFC0020FFF7C3
:1022100069FC3A20FFF766FC0020FFF763FC3920D9
:10222000FFF760FC0020FFF75DFC3720FFF75AFC4A
:102230000020FFF757FC3C20FFF754FC0020FFF77D
:1022400051FC3620FFF74EFC0020FFF74BFC3220FC
:10225000FFF748FC0020FFF745FC2F20FFF742FC6A
:102260000020FFF73FFC2C20FFF73CFC0020FFF78D
:1022700039FC2920FFF736FC0020FFF733FC26202D
:10228000FFF730FC0020FFF72DFC2420FFF72AFC8D
:102290000020FFF727FC2420FFF724FC0020FFF795
:1022A00021FC2320FFF71EFC0020FFF71BFC3C2035
:1022B000FFF718FC0020FFF715FC3620FFF712FC93
:1022C0000020FFF70FFC3220FFF70CFC0020FFF787
:1022D00009FC2F20FFF706FC0020FFF703FC2C2051
:1022E000FFF700FC0020FFF7FDFB2920FFF7FAFBBA
:1022F0000020FFF7F7FB2620FFF7F4FB0020FFF795
:10230000F1FB2420FFF7EEFB0020FFF7EBFB24207E
:10231000FFF7E8FB0020FFF7E5FB2320FFF7E2FBD8
:102320000020FFF7DFFBC420FFF7D3FB6220FFF79D
:10233000D9FB0020FFF7D6FB0520FFF7D3FB0020D9
:10234000FFF7D0FB8420FFF7CDFB0020FFF7CAFB8F
:10235000F020FFF7C7FB0020FFF7C4FB1820FFF7B2
:10236000C1FB0020FFF7BEFBA420FFF7BBFB002052
:10237000FFF7B8FB1820FFF7B5FB0020FFF7B2FB13
:102380005020FFF7AFFB0020FFF7ACFB0C20FFF75E
:10239000A9FB0020FFF7A6FB1720FFF7A3FB0020F7
:1023A000FFF7A0FB9520FFF79DFB0020FFF79AFBAE
:1023B000F320FFF797FB0020FFF794FBE620FFF7E1
:1023C00091FB0020FFF78EFBC520FFF782FB322038
:1023D000FFF788FB0020FFF785FB4420FFF782FB17
:1023E0000020FFF77FFB6520FFF77CFB0020FFF755
:1023F00079FB7620FFF776FB0020FFF773FB882040
:10240000FFF770FB0020FFF76DFBC620FFF761FBB5
:102410002020FFF767FB0020FFF764FB1720FFF782
:1024200061FB0020FFF75EFB0120FFF75BFB002054
:10243000FFF758FBC720FFF74CFB0020FFF752FBCC
:102440000020FFF74FFB0020FFF74CFB0020FFF7B9
:1024500049FBC820FFF73DFB0020FFF743FB0020AE
:10246000FFF740FB0020FFF73DFB0020FFF73AFBA2
:10247000C920FFF72EFB0020FFF734FB0020FFF7F9
:1024800031FB0020FFF72EFB0020FFF72BFB002085
:10249000FFF728FB0020FFF725FB0020FFF722FBBA
:1024A0000020FFF71FFB0020FFF71CFB0020FFF7B9
:1024B00019FB0020FFF716FB0020FFF713FB00209D
:1024C000FFF710FB0020FFF70DFB0020FFF70AFBD2
:1024D0000020FFF707FBE020FFF7FBFA1620FFF7CD
:1024E00001FB0020FFF7FEFA1C20FFF7FBFA00209B
:1024F000FFF7F8FA2120FFF7F5FA0020FFF7F2FACC
:102500003620FFF7EFFA0020FFF7ECFA4620FFF73E
:10251000E9FA0020FFF7E6FA5220FFF7E3FA00207D
:10252000FFF7E0FA6420FFF7DDFA0020FFF7DAFAA0
:102530007A20FFF7D7FA0020FFF7D4FA8B20FFF7B5
:10254000D1FA0020FFF7CEFA9920FFF7CBFA00204E
:10255000FFF7C8FAA820FFF7C5FA0020FFF7C2FA74
:10256000B920FFF7BFFA0020FFF7BCFAC420FFF73D
:10257000B9FA0020FFF7B6FACA20FFF7B3FA002035
:10258000FFF7B0FAD220FFF7ADFA0020FFF7AAFA62
:10259000D920FFF7A7FA0020FFF7A4FAE020FFF701
:1025A000A1FA0020FFF79EFAF320FFF79BFA002024
:1025B000FFF798FAE120FFF78CFA1620FFF792FA5E
:1025C0000020FFF78FFA1C20FFF78CFA0020FFF79E
:1025D00089FA2220FFF786FA0020FFF783FA3620D7
:1025E000FFF780FA0020FFF77DFA4520FFF77AFA1F
:1025F0000020FFF777FA5220FFF774FA0020FFF768
:1026000071FA6420FFF76EFA0020FFF76BFA7A2068
:10261000FFF768FA0020FFF765FA8B20FFF762FAF0
:102620000020FFF75FFA9920FFF75CFA0020FFF720
:1026300059FAA820FFF756FA0020FFF753FAB920FD
:10264000FFF750FA0020FFF74DFAC420FFF74AFACF
:102650000020FFF747FACA20FFF744FA0020FFF7EF
:1026600041FAD220FFF73EFA0020FFF73BFAD820CC
:10267000FFF738FA0020FFF735FAE020FFF732FACB
:102680000020FFF72FFAF320FFF72CFA0020FFF7C6
:1026900029FAE220FFF71DFA0520FFF723FA0020B0
:1026A000FFF720FA0B20FFF71DFA0020FFF71AFAB8
:1026B0001B20FFF717FA0020FFF714FA3420FFF76A
:1026C00011FA0020FFF70EFA4420FFF70BFA002062
:1026D000FFF708FA4F20FFF705FA0020FFF702FA8C
:1026E0006120FFF7FFF90020FFF7FCF97920FFF7E1
:1026F000F9F90020FFF7F6F98820FFF7F3F9002039
:10270000FFF7F0F99720FFF7EDF90020FFF7EAF95E
:10271000A620FFF7E7F90020FFF7E4F9B720FFF75D
:10272000E1F90020FFF7DEF9C220FFF7DBF9002016
:10273000FFF7D8F9C720FFF7D5F90020FFF7D2F946
:10274000D120FFF7CFF90020FFF7CCF9D620FFF713
:10275000C9F90020FFF7C6F9DD20FFF7C3F9002013
:10276000FFF7C0F9F320FFF7BDF90020FFF7BAF932
:10277000E320FFF7AEF90520FFF7B4F90020FFF7DB
:10278000B1F90A20FFF7AEF90020FFF7ABF91C20E2
:10279000FFF7A8F90020FFF7A5F93320FFF7A2F90A
:1027A0000020FFF79FF94420FFF79CF90020FFF776
:1027B00099F95020FFF796F90020FFF793F962206E
:1027C000FFF790F90020FFF78DF97820FFF78AF9DD
:1027D0000020FFF787F98820FFF784F90020FFF732
:1027E00081F99720FFF77EF90020FFF77BF9A620FB
:1027F000FFF778F90020FFF775F9B720FFF772F9B6
:102800000020FFF76FF9C220FFF76CF90020FFF7F7
:1028100069F9C720FFF766F90020FFF763F9D120B7
:10282000FFF760F90020FFF75DF9D520FFF75AF9AF
:102830000020FFF757F9DD20FFF754F90020FFF7DC
:1028400051F9F320FFF74EF90020FFF74BF9E42090
:10285000FFF73FF90120FFF745F90020FFF742F9A4
:102860000120FFF73FF90020FFF73CF90220FFF7B6
:1028700039F90020FFF736F92A20FFF733F9002055
:10288000FFF730F93C20FFF72DF90020FFF72AF978
:102890004B20FFF727F90020FFF724F95D20FFF711
:1028A00021F90020FFF71EF97420FFF71BF9002023
:1028B000FFF718F98420FFF715F90020FFF712F948
:1028C0009320FFF70FF90020FFF70CF9A220FFF784
:1028D00009F90020FFF706F9B320FFF703F90020FC
:1028E000FFF700F9BE20FFF7FDF80020FFF7FAF828
:1028F000C420FFF7F7F80020FFF7F4F8CD20FFF72A
:10290000F1F80020FFF7EEF8D320FFF7EBF80020F6
:10291000FFF7E8F8DD20FFF7E5F80020FFF7E2F821
:10292000F320FFF7DFF80020FFF7DCF8E520FFF7E2
:10293000D0F80020FFF7D6F80020FFF7D3F80020EA
:10294000FFF7D0F80020FFF7CDF80220FFF7CAF814
:102950000020FFF7C7F82920FFF7C4F80020FFF791
:10296000C1F83C20FFF7BEF80020FFF7BBF84B2072
:10297000FFF7B8F80020FFF7B5F85D20FFF7B2F8D1
:102980000020FFF7AFF87420FFF7ACF80020FFF746
:10299000A9F88420FFF7A6F80020FFF7A3F89320FA
:1029A000FFF7A0F80020FFF79DF8A220FFF79AF8A4
:1029B0000020FFF797F8B320FFF794F80020FFF707
:1029C00091F8BE20FFF78EF80020FFF78BF8C420A7
:1029D000FFF788F80020FFF785F8CD20FFF782F891
:1029E0000020FFF77FF8D320FFF77CF80020FFF7E7
:1029F00079F8DC20FFF776F80020FFF773F8F32072
:102A0000FFF770F80020FFF76DF8E620FFF761F898
:102A10001120FFF767F80020FFF764F83420FFF774
:102A200061F80020FFF75EF85620FFF75BF8002002
:102A3000FFF758F87620FFF755F80020FFF752F817
:102A40007720FFF74FF80020FFF74CF86620FFF7DC
:102A500049F80020FFF746F88820FFF743F80020E8
:102A6000FFF740F89920FFF73DF80020FFF73AF80C
:102A7000BB20FFF737F80020FFF734F89920FFF765
:102A800031F80020FFF72EF86620FFF72BF8002022
:102A9000FFF728F85520FFF725F80020FFF722F868
:102AA0005520FFF71FF80020FFF71CF84520FFF71F
:102AB00019F80020FFF716F84320FFF713F800205D
:102AC000FFF710F84420FFF70DF80020FFF70AF891
:102AD000E720FEF7FEFF3220FFF704F80020FFF7A3
:102AE00001F85520FEF7FEFF0020FEF7FBFF7620E1
:102AF000FEF7F8FF0020FEF7F5FF6620FEF7F2FF75
:102B00000020FEF7EFFF6720FEF7ECFF0020FEF746
:102B1000E9FF6720FEF7E6FF0020FEF7E3FF8720CE
:102B2000FEF7E0FF0020FEF7DDFF9920FEF7DAFF59
:102B30000020FEF7D7FFBB20FEF7D4FF0020FEF7F2
:102B4000D1FF9920FEF7CEFF0020FEF7CBFF7720C4
:102B5000FEF7C8FF0020FEF7C5FF4420FEF7C2FFC6
:102B60000020FEF7BFFF5620FEF7BCFF0020FEF757
:102B7000B9FF2320FEF7B6FF0020FEF7B3FF332096
:102B8000FEF7B0FF0020FEF7ADFF4520FEF7AAFFDD
:102B90000020FEF7A7FFE820FEF79BFF0020FEF7CE
:102BA000A1FF0020FEF79EFF9920FEF79BFF00206B
:102BB000FEF798FF8720FEF795FF0020FEF792FFB3
:102BC0008820FEF78FFF0020FEF78CFF7720FEF7AE
:102BD00089FF0020FEF786FF6620FEF783FF0020B6
:102BE000FEF780FF8820FEF77DFF0020FEF77AFFCA
:102BF000AA20FEF777FF0020FEF774FFBB20FEF748
:102C000071FF0020FEF76EFF9920FEF76BFF00209A
:102C1000FEF768FF6620FEF765FF0020FEF762FF03
:102C20005520FEF75FFF0020FEF75CFF5520FEF702
:102C300059FF0020FEF756FF4420FEF753FF002007
:102C4000FEF750FF4420FEF74DFF0020FEF74AFF3D
:102C50005520FEF747FF0020FEF744FFE920FEF76E
:102C600038FFAA20FEF73EFF0020FEF73BFF0020C2
:102C7000FEF738FF0020FEF735FF0020FEF729FFA2
:102C8000AA20FEF72FFFCF20FEF723FF0020FEF73C
:102C900029FF0020FEF726FF0020FEF723FF00207B
:102CA000FEF720FF0020FEF71DFF0020FEF71AFFB1
:102CB0000020FEF717FF0020FEF714FF0020FEF7AC
:102CC00011FF0020FEF70EFF0020FEF70BFF002093
:102CD000FEF708FF0020FEF705FF0020FEF702FFC9
:102CE0000020FEF7FFFE0020FEF7FCFE0020FEF7AE
:102CF000F9FEF020FEF7EDFE0020FEF7F3FE502077
:102D0000FEF7F0FE0020FEF7EDFE0020FEF7EAFEE3
:102D10000020FEF7E7FEF320FEF7DBFE0020FEF7C3
:102D2000E1FEF920FEF7D5FE0620FEF7DBFE1020BF
:102D3000FEF7D8FE2920FEF7D5FE0020FEF7D2FED2
:102D40003A20FEF7C6FE5520FEF7CCFE1120FEF716
:102D5000C0FE642000F0B0FD2920FEF7BAFE352049
:102D6000FEF7B7FE0020FEF7BDFE5120FEF7B1FED4
:102D7000FF20FEF7B7FE5320FEF7ABFE2C20FEF738
:102D8000B1FE5520FEF7A5FE8220FEF7ABFE2C20FB
:102D9000FEF79FFEF9498879FEF741FF0120F849C7
:102DA0000860F8480088FEF7E3FE20B010BD2DE96A
:102DB000F04F05460E4617469846DDF824A04FF022
:102DC000000B781B401C1FFA80FB344614E02146A0
:102DD0002846FEF7B4FEFEF7A9FE4FF0000907E013
:102DE0004FF0D840A0F880A009F101001FFA80F947
:102DF000D945F5DB601C84B24445E8DDBDE8F08FC1
:102E000030B504460D4629462046FEF798FEFEF7EB
:102E10008DFEDD480088DD49088030BD10B5D74BF8
:102E20005B89DA4CA41E238003124FF0D844A4F827
:102E30008030C3B2A4F88030D04B9B89D34CA41E01
:102E400023800B12A41C2380CBB24FF0D844A4F8EB
:102E50008030CA4B1B89A4F87E302346A3F880201B
:102E600010BD2DE9FF4F84B081468A4600200290B4
:102E700083460698A0EB09050798A0EB0A06CDF853
:102E80000490CDF800A0002D01DD012705E00DB96B
:102E9000002702E04FF0FF376D42002E02DD4FF0B9
:102EA000010806E016B94FF0000802E04FF0FF38C5
:102EB0007642B54201DD2C4600E034460020039006
:102EC0001EE0009A91B2019A90B2119AFFF7A6FF04
:102ED000029828440290B3440298A04205DD02986B
:102EE000001B0290019838440190A34504DDABEB30
:102EF000040B0098404400900398401C80B203905B
:102F0000611C03988842DCDD08B0BDE8F08F2DE934
:102F1000F04706460F4690469A4600244546032051
:102F2000A0EB480944E07A1B91B2321990B25246A4
:102F3000FFF774FF3A1B91B2721990B25246FFF735
:102F40006DFF3A1991B2721990B25246FFF766FFBF
:102F50007A1991B2321990B25246FFF75FFF7A198F
:102F600091B2321B90B25246FFF758FF3A1991B214
:102F7000721B90B25246FFF751FF7A1B91B2321B7F
:102F800090B25246FFF74AFF3A1B91B2721B90B2C1
:102F90005246FFF743FF641CB9F1000F03DAA000AB
:102FA000801D814404E0601B80000A3081446D1E56
:102FB000AC42B8DDBDE8F0872DE9F84105460E4684
:102FC00017469846079C33463A46314628460094B1
:102FD000FFF747FF43462A46314628460094FFF74D
:102FE00040FF43463A46414628460094FFF739FFE2
:102FF00043463A46314638460094FFF732FFBDE873
:10300000F8812DE9F84F80460E4617461C46B34618
:103010002046E31704EB5373DB1021464FEAE47CB0
:1030200004EB5C7C4FEAEC0CA4EBCC0CBCF1000F85
:1030300002D04FF0010C01E04FF0000C6344224637
:1030400004EBD27C4FEA6C0C03FB0CF3DBB2009375
:10305000A7F12000C7B2002556E00C2C07D107EBE2
:1030600047004B4901EB800010F8059013E0102C4D
:1030700005D1484800EB071010F805900BE0182C1C
:1030800007D107EBC700444901EB800010F8059019
:1030900001E0BDE8F88F4FF0000A2FE009F0800052
:1030A00030B13948028831464046FFF7B7FE07E0A5
:1030B0000A9828B93348028831464046FFF7AEFEE9
:1030C0004FEA49604FEA1069701C86B22B4840886D
:1030D000B04200DCDDE7A6EB0B00A0420AD15E4661
:1030E00008F101001FFA80F824480088404500DC00
:1030F000CFE706E00AF1010000F0FF0ABAF1080F7D
:10310000CCDB00BF681CC5B200988542A5DB00BFC0
:10311000BFE72DE9F84F04460D4690469946DDE994
:103120000B7A0A9E04F0FF0B08EB04001FFA80F8EC
:1031300009EB05001FFA80F916E0444502DB5C4606
:10314000A81985B24D4500DB14E0CDF800A03A780F
:10315000334629462046FFF754FF304606EBD07130
:1031600004EB61018CB27F1C38787E2802DC387851
:103170002028E2DA00BFBDE8F88F000098010020A7
:10318000BC824042500000204E0000208000006CB5
:103190000065020874690208646F020810B50246EF
:1031A000012000E050430B00A1F10104E1B2F9D18C
:1031B00010BD2DE9FF4F81B0074691461E460E9D7A
:1031C0004FF0000A002439E0301B401EC1B20A2033
:1031D000FFF7E4FFB9FBF0F00A21B0FBF1F201FBCD
:1031E0001208BAF1000F16D1701EA04213DDB8F11B
:1031F000000F0ED10020AB4605EBDB71491001FB3F
:103200000471009088B22B4620220299FFF7F9FE44
:1032100012E04FF0010A0020AB4605EBDB714910CC
:1032200001FB0471009088B208F13001CAB22B464C
:103230000299FFF7E6FE00BF601CC4B2B442C3DBD4
:1032400005B0BDE8F08F2DE9FF4F82B006469246EB
:103250001F46DDE90F480020019000254DE0781B56
:10326000401EC1B20A20FFF799FFBAFBF0F00A2115
:10327000B0FBF1F201FB1209019850BB781EA84285
:1032800027DDB9F1000F22D108F0800078B108F0F5
:103290000100A34604EBDB71491001FB05610090BE
:1032A00088B2234630220399FFF7ABFE0EE008F008
:1032B0000100A34604EBDB71491001FB056100909E
:1032C00088B2234620220399FFF79BFE13E00120DA
:1032D000019008F00100A34604EBDB71491001FBEB
:1032E0000561009088B209F13001CAB22346039902
:1032F000FFF787FE00BF681CC5B2BD42AFDB06B05A
:10330000BDE8F08F29205F490880704728205D497B
:10331000088070472DE9F84F07460D4690461C4639
:10332000AA462046E21704EB5272D2102146E31758
:1033300004EB5373DB10A4EBC3030BB1012300E0D8
:1033400000231A44624302F0FF0B002637E04E4888
:1033500000EB481010F806900020009029E009F0DA
:10336000800030B14948028829463846FFF756FDAB
:1033700007E00A9828B94648028829463846FFF7E8
:103380004DFD4FEA49604FEA1069681C85B2A5EB14
:103390000A00A04209D15546781C87B23D480088F2
:1033A000B84201DABDE8F88F06E00098401CC0B2D0
:1033B000009000980828D2DB00BF701CC6B25E45A2
:1033C000C5DB00BFEEE72DE9F84F04460D46164673
:1033D0009946DDE90A78A2464FF0000B301986B213
:1033E00009EB05001FFA80F916E008F1010800203A
:1033F0003B465A46294600902046FFF78BFF08F1CE
:1034000001080BF1010000F0FF0BE01984B2B44297
:1034100002DB5446E81985B298F800000028E4D190
:10342000BDE8F88F2DE9F84F07460D4690469946BE
:10343000DDF828B0A8EB0700401C1FFA80FAA9EBC2
:103440000500401C80B20090002415E0281981B2CC
:103450003846FEF774FBFEF769FB002608E004FB24
:103460000A603BF810000749891C0880701C86B26E
:103470005645F4DB601C84B200988442E6DBBDE86C
:10348000F88F00007E00006CC07C02084E00002017
:1034900050000020980100207FB505460C46012110
:1034A000022001F0AEF90020ADF80C00ADF80600E6
:1034B0000295ADF8044001A9144801F084FD1D20D7
:1034C0008DF8000001208DF8030006208DF8010022
:1034D00000208DF80200684600F0D7FA012211465C
:1034E0000A4802F011FA0121084801F0F5FD7FBDFC
:1034F00010B50121054802F01EFA012801D115F08E
:1035000061FC0121014802F027FA10BD00040040CF
:1035100000B599B00121084601F062F90121782037
:1035200001F026F94FF63370179002208DF86000F5
:1035300000208DF8620001208DF8630003208DF8D3
:10354000610017A9A74800F091FB4FF68370179010
:1035500002208DF8600000208DF8620001208DF8B7
:10356000630003208DF8610017A99F4800F07EFBDF
:103570004FF23F00179002208DF8600000208DF878
:10358000620001208DF8630003208DF8610017A907
:10359000964800F06BFB41F23F40179002208DF8F7
:1035A000600000208DF8620001208DF86300032088
:1035B0008DF8610017A98E4800F058FB0C220021FD
:1035C000884800F0DEFB0C220121864800F0D9FB80
:1035D0000C220421834800F0D4FB0C2205218148F1
:1035E00000F0CFFB0C2208217E4800F0CAFB0C2221
:1035F00009217C4800F0C5FB0C220A21794800F023
:10360000C0FB0C220B21774800F0BBFB0C221146BB
:10361000744800F0B6FB0C220D21724800F0B1FB9B
:103620000C220E216F4800F0ACFB0C220F216D48DC
:1036300000F0A7FB0C2200216B4800F0A2FB0C223B
:103640000121694800F09DFB0C220721664800F02B
:1036500098FB0C220821644800F093FB0C220921FE
:10366000614800F08EFB0C220A215F4800F089FBC4
:103670000C220B215C4800F084FB0C2211465A48B6
:1036800000F07FFB0C220D21574800F07AFB0C2242
:103690000E21554800F075FB0C220F21524800F016
:1036A00070FB0C220021514800F06BFB0C22012121
:1036B0004E4800F066FB0C2202214C4800F061FBF2
:1036C0000C220321494800F05CFB0C2204214748EE
:1036D00000F057FB0C220521444800F052FB0C225D
:1036E0001146424800F04DFB0C220D213F4800F0EE
:1036F00048FB0C220E213D4800F043FB0C220F2119
:103700003A4800F03EFB0C220021394800F039FB1A
:103710000C220121364800F034FB0C2202213448EF
:1037200000F02FFB0C220321314800F02AFB0C2271
:1037300004212F4800F025FB0C2205212C4800F025
:1037400020FB0C220A212A4800F01BFB0C22114608
:10375000274800F016FB00200790029001200190FE
:103760000020049005900690092003900420089002
:1037700000200D900C900990139010200B900020C9
:103780000A90129010904FF400700E9000200F904D
:1037900014904FF48050119001A81690159008A82D
:1037A00000F043FB0121042000F0CAFB19B000BD6A
:1037B00010B505E004784FF0D0435C54491C401C20
:1037C0001300A2F10102F5D110BD10B505E04FF0D4
:1037D000D0435B5C0370491C401C1300A2F1010242
:1037E000F5D110BD000C0240001002400014024050
:1037F0000018024010B504466FF0040000F092F982
:10380000E11704EB5171C1F3C701394A1170104639
:10381000007800EB4001C1EBC0104FF6FF7101EAE8
:10382000C0003449088010BD0146314A12784A432D
:103830004FF0E0235A6100229A611A46126942F061
:1038400001021A6100BF4FF0E022106900F001028E
:103850001AB100F48032002AF5D04FF0E02212694C
:1038600022F001024FF0E0231A6100229A617047B2
:103870000146204A12884A434FF0E0235A61002251
:103880009A611A46126942F001021A6100BF4FF0B4
:10389000E022106900F001021AB100F48032002A1F
:1038A000F5D04FF0E022126922F001024FF0E02340
:1038B0001A6100229A61704770B504464FF4077090
:1038C00094FBF0F0C6B24FF4077094FBF0F100FBEC
:1038D000114085B205E04FF40770FFF7C9FF701E75
:1038E000C6B2002EF7D115B12846FFF7C1FF70BD53
:1038F000520000205400002000BF704700BF4C4A17
:10390000128802F04002002AF9D0C2B2484B9A80D5
:10391000704710B588B004460121084600F028FF22
:103920000121102000F07EFF07220921414800F00C
:1039300028FA07220A213F4800F023FA4FF4C0601A
:10394000069002208DF81C008DF81D0000208DF8D7
:103950001E0001208DF81F0006A9364800F086F9E8
:1039600002940020ADF80C00ADF80E00ADF8100088
:10397000ADF814000C20ADF8120002A92C4801F09B
:10398000B2F801212A4801F036F9012240F225510E
:10399000274801F0E6F925208DF8040003208DF872
:1039A00005008DF8060001208DF8070001A800F041
:1039B0006CF808B010BD10B540F225511C4801F05C
:1039C0000BFA10B31A4801F045F9C4B21A4800883E
:1039D00000F40040C8B91848008800F4804060B185
:1039E0000A2C03D000201449088020E012480088E7
:1039F00040F400401049088019E00D2C06D10E4813
:103A0000008840F480400C49088010E00A48008893
:103A1000C0F30D0009490C5407480088401C0649B2
:103A2000088008460088C72801DD0020088010BDF6
:103A300000100140000002405C000020A6010020B0
:103A40000948804709480047FEE7FEE7FEE7FEE732
:103A5000FEE7FEE7FEE7FEE7FEE7FEE7044805496E
:103A6000054A064B70470000C5030008890100089D
:103A7000A85D0020A8670020A85F0020A85F0020A4
:103A800032490143324A1160704770B5002100236A
:103A90000F22C4781CB32E4C246804F4E064C4F5EF
:103AA000E064C4F30721C1F10404E3B20A4144789D
:103AB0009C40E1B28478144021430C07210E254C30
:103AC00005786155047804F01F050124AC400578A1
:103AD0006D11AD0005F1E025C5F8004109E004785D
:103AE00004F01F050124AC401B4D0678761145F803
:103AF000264070BD194A0A400243154B1B1F1A602D
:103B0000704739B1124A121D12680243104B1B1D37
:103B10001A6006E00E4A121D126882430C4B1B1DF0
:103B20001A607047042808D14FF0E021096941F07C
:103B300004014FF0E022116107E04FF0E021096934
:103B400021F004014FF0E022116170470000FA05F6
:103B50000CED00E000E400E080E100E080FFFF1FEA
:103B600010B504469848844208D10121084600F067
:103B70006AFE0021012000F066FE76E09348844250
:103B800008D10121022000F05EFE0021022000F099
:103B90005AFE6AE08E48844208D10121042000F0D8
:103BA00052FE0021042000F04EFE5EE0894884426F
:103BB00008D10121082000F046FE0021082000F075
:103BC00042FE52E08448844208D10121102000F0D6
:103BD0003AFE0021102000F036FE46E07F48844285
:103BE00008D10121202000F02EFE0021202000F02D
:103BF0002AFE3AE07A48844208D10121402000F0B0
:103C000022FE0021402000F01EFE2EE07548844276
:103C100008D10121802000F016FE0021802000F054
:103C200012FE22E07048844208D10121801500F084
:103C30000AFE0021A01500F006FE16E06B48844243
:103C400008D10121401500F0FEFD0021601500F0B3
:103C5000FAFD0AE06648844207D10121001500F010
:103C6000F2FD0021201500F0EEFD10BDF0B50A4672
:103C700000210023002400BF3DE0012505FA01F3E7
:103C8000156805EA03049C4234D105684F000326F9
:103C9000BE40B543056015794E00B5400668354312
:103CA00005601579012D02D01579022D16D1856890
:103CB0004F000326BE40B543856055794E00B540A0
:103CC000866835438560456801268E40B54345606A
:103CD000456896798E40B6B235434560C5684F0059
:103CE0000326BE40B543C560D5794E00B540C668D1
:103CF0003543C560491C1029BFD3F0BD4FF6FF7195
:103D000001600021017141718171C171704708B575
:103D10004FF480320092009A0A430092009AC261E6
:103D2000C161009AC261C2690092C269009208BD75
:103D30000246002013690B400BB1012000E0002077
:103D400070470146086980B27047024600205369F7
:103D50000B400BB1012000E000207047014648698C
:103D600080B2704701837047418370470AB1018375
:103D700000E0418370474161704742694A404261B7
:103D80007047F0B5002300244D07ED0E02FA05F34D
:103D9000CE1000F1200555F826504E07F70E0F26DD
:103DA000BE40B543CF1000F1200646F82750CE1094
:103DB00000F1200555F8265045EA0304CE1000F125
:103DC000200545F82640F0BD0000024000040240F6
:103DD00000080240000C02400010024000140240A3
:103DE00000180240001C0240002002400024024053
:103DF0000028024030B943F2DB028100A1F1C0414A
:103E00000A6005E043F2D2028100A1F1C0410A60DC
:103E10006FF07042411C8900A1F1C0410A6081002D
:103E2000A1F1C041C1F804217047D0E9011211434A
:103E3000C268114302691143426911438269114307
:103E4000C2691143026A1143426A1143826A1143F3
:103E5000C26A1143026B114302689200A2F1C04290
:103E60001160816808290BD101688900A1F1C04166
:103E7000096841F0400201688900A1F1C0410A606F
:103E8000416B0968426B526841EA0211426B9268C9
:103E900041EA0221426B928941EA0241426B128A55
:103EA00041EA0251426B127D41EA0261426B926922
:103EB00011430268521C9200A2F1C0421160C16A13
:103EC000B1F5804F1BD1816B0968826B526841EA62
:103ED0000211826B926841EA0221826B128A41EAE6
:103EE0000251826B127D41EA0261826B9269114339
:103EF00002689200A2F1C042C2F8041107E06FF01C
:103F0000704201688900A1F1C041C1F804217047E5
:103F1000002101600221416000218160C1600161D6
:103F200041618161C16101624FF480514162490088
:103F300081620021C1620163F84941638163704776
:103F400051B18200A2F1C042126842F00103820026
:103F5000A2F1C042136009E08200A2F1C0421268DF
:103F6000EF4B1A408300A3F1C0431A60704710283A
:103F70000AD118214FF020421166402151664FF0BE
:103F8000FC319166D16610E01821E64A11604021AB
:103F90004FF02042C2F884104FF0FC31E14A083261
:103FA00011604FF02042C2F88C10704730B50021EC
:103FB00000220023446844F0080485682C43C56847
:103FC0002C4305692C43456944EA4524856944EA44
:103FD0004531C4692468C5696D6844EA0524C5692A
:103FE0002D8944EA0544C5692D7B44EA0562046ACB
:103FF0002468056A6D6844EA0524056A2D8944EA47
:104000000544056A2D7B44EA05630468102C05D13C
:104010004FF020442166A266E36608E0C14C2160AF
:104020004FF02044C4F88820BE4C0C34236030BDCF
:1040300010210160002141608160C1600161416126
:104040008161FC21C2691160C2695160C2699160DD
:10405000C269D160026A1160026A5160026A9160AD
:10406000026AD160704799B1102808D14FF0204200
:10407000126E42F004024FF020431A661DE0A94A76
:10408000126842F004024FF02043C3F8802014E08D
:10409000102809D14FF02042126EA14BDB1E1A40AE
:1040A0004FF020431A6608E09E4A12689C4BDB1EC4
:1040B0001A404FF02043C3F88020704799B1102870
:1040C00008D14FF02042126E42F040024FF02043E0
:1040D0001A661DE0934A126842F040024FF02043F6
:1040E000C3F8802014E0102809D14FF02042126E4E
:1040F0008B4B3F3B1A404FF020431A6608E0894A39
:104100001268874B3F3B1A404FF02043C3F8802092
:10411000704701460020102903D14FF02042506F14
:1041200002E0804A14321068704718207D4920311F
:10413000086000200906C1F8A4004FF0FC3079495E
:1041400028310860091D0860091D08607047016872
:1041500041F01001426841EA4221826841EA42315D
:10416000704A20321160C1680968C268526841EA29
:104170000221C268128941EA0241C268127B41EA07
:104180000261684A2832116001690968026952684F
:1041900041EA02210269128941EA02410269127B65
:1041A00041EA02615F4A2C32116041690968426943
:1041B000526841EA02214269128941EA0241426998
:1041C000127B41EA02614FF02042C2F8B010704702
:1041D0000021016041608160FC21C2681160C268F9
:1041E0005160C2689160C268D16002691160026961
:1041F0005160026991600269D1604269116042694F
:104200005160426991604269D160704748B1454947
:104210002031096841F004014FF02042C2F8A0109B
:1042200009E04049203109683D4AD21E11404FF053
:104230002042C2F8A010704710B5F2B1102807D183
:104240004FF020435B6E0B434FF02044636632E037
:10425000B0F5807F08D1334B1B1D1B680B434FF01B
:104260002044C4F8843026E02E4B24331B680B43D3
:104270004FF02044C4F8A4301DE0102807D14FF0BF
:1042800020435B6E8B434FF02044636613E0B0F530
:10429000807F08D1234B1B1D1B688B434FF02044AC
:1042A000C4F8843007E01F4B24331B688B434FF066
:1042B0002044C4F8A43010BD10B5024600200023ED
:1042C000102A03D14FF02044636E09E0B2F5807FDD
:1042D00003D1144C241D236802E0124C24342368BB
:1042E00003EA01040CB1012000E0002010BD1028F9
:1042F00007D14FF02042526E8A434FF020435A6656
:1043000019E0B0F5807F0FD1064A121D12688A436A
:104310004FF02043C3F884200DE00000A07D020888
:10432000FEFF0F00800000A0234A12688A434FF06E
:104330002043C3F8A420704770B502460020002334
:1043400000240025102A03D14FF02046736E08E0A8
:10435000B2F5807F03D1184E203E336801E0164E3F
:10436000336803EA010403EAD10514B10DB1012059
:1043700000E0002070BD102808D14FF02042526E9E
:1043800022EAD1024FF020435A6614E0B0F5807F54
:1043900009D1094A203A126822EAD1024FF020439B
:1043A000C3F8842007E0044A126822EAD1024FF0E1
:1043B0002043C3F8A4207047A40000A0F948006877
:1043C00040F00100F74908600020F6490831086014
:1043D000F4480068F4490840F2490860F348091DB0
:1043E0000860F348EF4984310860F0481038091D2F
:1043F0000860EC48006820F48020EA49086000204A
:10440000E8490C310860E7498C31086070470021A9
:10441000E44A921C117011460870704710B50146AD
:104420000022002300204A11012A02D1DD4C23681A
:1044300008E0022A03D1DB4C7034236802E0D94C37
:104440007434236801F01F02012494401C400CB115
:10445000012000E0002010BD38B5002000900024AD
:10446000002500BF3120FFF7D9FF05460098401C0A
:1044700000900098B0F5A04F01D0002DF2D031206F
:10448000FFF7CCFF08B1012400E00024204638BD2E
:1044900001460020C34A106820F0F80040EAC1003D
:1044A00010607047C349086070470021BD4A7032F0
:1044B00011701170012802D004280AD104E00121F2
:1044C000B84A7032117005E00521B64A7032117099
:1044D00000E000BF00BF7047B7490860704770B583
:1044E000049C41EA82150126C6EB530645EA0645BF
:1044F000054345EA0465AB4E361D356070BDAD49D8
:1045000008667047820142EA0172A64B84331A6042
:104510007047A8498866704710B5830143EA016374
:1045200043EA02739F4C8834236010BDA149086799
:104530007047A049C864704702460020994B083371
:10454000186820F0EC6042EA01031843954B0833E9
:104550001860704702460020924B0833186820F01C
:10456000784042EA010318438E4B083318607047C5
:10457000014600208B4A0832106820F003000843EF
:104580001060704787480830006800F00C007047E2
:1045900001460020834A0832106820F0F0000843EA
:1045A00010607047014600207E4A0832106820F4EF
:1045B000E05008431060704701460020794A0832F5
:1045C000106820F4604040EAC10010607047F0B508
:1045D000002100220024022500260223714F083703
:1045E0003F6807F00C0121B1042905D0082937D113
:1045F00005E0724F076036E0714F076033E0694FA6
:104600003F1D3F68C7F38056664F3F1D3F6807F068
:104610003F036EB16A4FB7FBF3F7DFF888C10CF1C7
:10462000040CDCF800C0CCF3881C07FB0CF40CE095
:10463000624FB7FBF3F7DFF86CC10CF1040CDCF848
:1046400000C0CCF3881C07FB0CF4564F3F1D3F689D
:10465000C7F301477F1C7D00B4FBF5F7076002E05C
:10466000564F076000BF00BF4E4F08373F6807F046
:10467000F0010909534F7A5C0768D7404760494FFA
:1046800008373F6807F4E051890A4E4F7A5C476863
:10469000D7408760434F08373F6807F46041490BB4
:1046A000484F7A5C4768D740C760F0BD002100F4EE
:1046B0004072B2F5407F0AD13A4A0832116821F4BB
:1046C000F811414A02401143364A08321160354A16
:1046D00070321268C0F30B031A43324B70331A6006
:1046E000704735494439086070473349403908609C
:1046F000704736490860704701460020294A8C32CD
:10470000106820F01F004A1E1043264A8C321060A9
:10471000704701460020234A8C32106820F4F8507C
:104720004A1E40EA02201F4A8C3210607047014640
:1047300000201C4A8C32106820F44010084310609E
:10474000704701460020174A8C32106820F4400060
:1047500008431060704701460020124A8C321068EE
:1047600020F44030084310607047194908607047D2
:1047700039B10C4A3032126802430A4B30331A60A6
:1047800006E0084A303212688243064B30331A6022
:104790007047F9B1034A343212680243014B343393
:1047A0001A601CE000380240FFFFF6EA10300024D7
:1047B0000030002000004742800E47420024F400F1
:1047C00000127A005E000020FFFCFF0F5C014742F0
:1047D000E01147428F4A126882438E4B1A6070473D
:1047E00039B18C4A121D126802438A4B1B1D1A6094
:1047F00006E0884A121D12688243864B1B1D1A6010
:10480000704739B1834A0C3212680243814B0C3332
:104810001A6006E07F4A0C32126882437D4B0C33EB
:104820001A60704739B17B4A103212680243794BE3
:1048300010331A6006E0774A103212688243754BD3
:1048400010331A60704739B1724A243A1268024331
:10485000704B243B1A6006E06E4A243A1268824389
:104860006C4B243B1A60704739B16A4A203A12688F
:104870000243684B203B1A6006E0664A203A126801
:104880008243644B203B1A60704739B1614A1C3A3D
:10489000126802435F4B1C3B1A6006E05D4A1C3AFB
:1048A000126882435B4B1C3B1A60704739B1594A0E
:1048B000143A12680243574B143B1A6006E0554AFB
:1048C000143A12688243534B143B1A60704739B153
:1048D000504A103A126802434E4B103B1A6006E0F1
:1048E0004C4A103A126882434A4B103B1A60704798
:1048F00039B1484A1C3212680243464B1C331A60D5
:1049000006E0444A1C3212688243424B1C331A6050
:10491000704739B13F4A2032126802433D4B203381
:104920001A6006E03B4A203212688243394B20333A
:104930001A60704739B1374A243212680243354B46
:1049400024331A6006E0334A243212688243314B22
:1049500024331A60704739B12E4A2C321268024350
:104960002C4B2C331A6006E02A4A2C321268824300
:10497000284B2C331A60704739B1264A30321268FE
:104980000243244B30331A6006E0224A3032126868
:104990008243204B30331A607047012808D11D49EB
:1049A0003C31096841F008011A4A3C32116007E0C5
:1049B00018493C31096821F00801164A3C3211605F
:1049C000704739B1134A273A12780243114B273BFB
:1049D0001A7006E00F4A273A127882430D4B273BA4
:1049E0001A7070470B484030006840F080700949E9
:1049F00040310860704701460020064A283A126894
:104A00000A400AB1012000E0002070470149263920
:104A1000087070473438024010B50446FA488442A2
:104A200008D101211020FFF752FF00211020FFF7CD
:104A30004EFF57E0F548844209D101214804FFF7B1
:104A400035FF00214FF40030FFF730FF4AE0F04817
:104A5000844209D101218804FFF728FF00214FF487
:104A60008020FFF723FF3DE0EA48844209D101217D
:104A7000C804FFF71BFF00214FF40020FFF716FFCB
:104A800030E0E548844209D101210805FFF70EFF17
:104A900000214FF48010FFF709FF23E0DF48844234
:104AA00008D101212020FFF712FF00212020FFF76D
:104AB0000EFF17E0DA48844209D101218807FFF789
:104AC000F5FE00214FF08040FFF7F0FE0AE0D548E8
:104AD000844207D101214005FFF7E8FE002160056F
:104AE000FFF7E4FE10BD2DE9FF4705460E46002402
:104AF000A14600BFA046B08900B100BF2C8A24F4B3
:104B00004054F08804432C82AC8941F20C60844309
:104B1000B08831890843718908430443AC81AC8A69
:104B200024F44074B0890443AC826846FFF74FFD1B
:104B3000B548854202D0B948854202D1DDF80C90D3
:104B400001E0DDF80890A88900F4004040B109EBCD
:104B5000C90000EB091031684900B0FBF1F707E02C
:104B600009EBC90000EB091031688900B0FBF1F7CF
:104B70006420B7FBF0F004012009642101FB1078E8
:104B8000A88900F4004040B1322000EBC800B0FB1F
:104B9000F1F000F00700044308E0322000EB0810B9
:104BA0006421B0FBF1F000F00F0004432C81BDE85C
:104BB000FF874FF41651016000218180C18001817F
:104BC0000C21418100218181704710B502460020EF
:104BD000108A20F470600B884C8823438C88234310
:104BE000CC8823431843108210BD002101804180EE
:104BF0008180C180704721B1828942F40052828154
:104C000004E082894DF6FF731A4082817047028B5F
:104C100002F47F420283028B0A430283704721B170
:104C2000828942F40042828103E08289C2F30E024B
:104C30008281704721B1828A42F40062828204E05C
:104C4000828A4FF2FF731A4082827047C1F30802D2
:104C50008280704701468888C0F308007047028A46
:104C60004FF6F0731A400282028A0A4302827047AA
:104C700021B1828942F00202828104E082894FF6EA
:104C8000FD731A408281704782894FF2FF731A4088
:104C9000828182890A4382817047028A4FF6DF73DC
:104CA0001A400282028A0A430282704721B1028AB4
:104CB00042F48042028204E0028A4BF6FF731A40FB
:104CC00002827047818941F001018181704721B1E1
:104CD000828A42F00802828204E0828A4FF6F773E9
:104CE0001A4082827047028BD2B20283028B42EA60
:104CF00001220283704721B1828A42F0200282821F
:104D000004E0828A4FF6DF731A408282704721B135
:104D1000828A42F01002828204E0828A4FF6EF73A8
:104D20001A4082827047828A4FF6FB731A40828251
:104D3000828A0A438282704721B1828A42F002024B
:104D4000828204E0828A4FF6FD731A4082827047A5
:104D50001AB1838A0B43838202E0838A8B43838266
:104D60007047F0B50346002400260025002040F6D9
:104D70006A17B94200D100BF1846C1F3421401F0CE
:104D80001F06012707FA06F5012C01D10C3004E0BB
:104D9000022C01D1103000E014301AB107682F4303
:104DA000076002E00768AF430760F0BD02460020DD
:104DB000B1F5007F00D100BF13880B400BB101207B
:104DC00000E00020704701F40072B2F5007F00D1CE
:104DD00000BFCA430280704770B50246002400231A
:104DE0000025002040F66A16B14200D100BFC1F391
:104DF000421501F01F03012606FA03F3012D13D11A
:104E00009689334017E00000001001400044004044
:104E100000480040004C0040005000400014014099
:104E200000780040007C0040022D02D1168A3340F9
:104E300001E0968A33400C12012606FA04F4168823
:104E4000344013B10CB1012000E0002070BD10B55A
:104E50000022002340F66A14A14200D100BF0A12CA
:104E600001249440A3B2DC43048010BD10B5044675
:104E7000FE48844208D101210846FFF728FD0021A1
:104E80000120FFF724FD9DE0B4F1804F08D10121FE
:104E90000846FFF70BFD00210120FFF707FD91E019
:104EA000F348844208D101210220FFF7FFFC0021D2
:104EB0000220FFF7FBFC85E0EE48844208D1012187
:104EC0000420FFF7F3FC00210420FFF7EFFC79E05A
:104ED000E948844208D101210820FFF7E7FC0021BE
:104EE0000820FFF7E3FC6DE0E448844208D101218B
:104EF0001020FFF7DBFC00211020FFF7D7FC61E05A
:104F0000DF48844208D101212020FFF7CFFC002197
:104F10002020FFF7CBFC55E0DA48844208D101217C
:104F20000220FFF7D4FC00210220FFF7D0FC49E06B
:104F3000D548844209D101210804FFF7C8FC0021AB
:104F40004FF48030FFF7C3FC3CE0D048844209D1E5
:104F500001214804FFF7BBFC00214FF40030FFF7AC
:104F6000B6FC2FE0CA48844209D101218804FFF72A
:104F7000AEFC00214FF48020FFF7A9FC22E0C548D9
:104F8000844208D101214020FFF790FC00214020FD
:104F9000FFF78CFC16E0C048844208D10121802034
:104FA000FFF784FC00218020FFF780FC0AE0BB486B
:104FB000844207D101218015FFF778FC0021A0155C
:104FC000FFF774FC10BD00220288A84B98420ED057
:104FD000AC4B98420BD0B0F1804F08D0A44B984214
:104FE00005D0A44B984202D0A34B984204D14FF66F
:104FF0008F731A404B881A43A04B984207D0A04B9E
:10500000984204D04FF6FF431A400B891A4302809E
:105010004B68C3620B880385944B984202D0994B2E
:10502000984201D18B7A03860123838270474FF027
:10503000FF31416000210180018141808172704710
:105040000185828270470A46002101884FF68F73DE
:10505000194011430180704741627047C162704737
:105060000146486A70470146088D704721B10288A1
:1050700042F00202028004E002884FF6FD731A40FB
:105080000280704721B1028842F00402028004E0ED
:1050900002884FF6FB731A400280704721B10288E4
:1050A00042F08002028004E002884FF67F731A40CB
:1050B0000280704702884FF6F7731A400280028818
:1050C0000A430280704702884FF6FF431A4002806D
:1050D00002880A430280704721B1028842F001022F
:1050E000028004E002884FF6FE731A400280704787
:1050F00070B5002400220023058C4FF6FE76354063
:105100000584028C8388048B4FF68F752C40B51E66
:105110002C400D882C43751E2A408D892A434D88CA
:105120002A43524DA84202D0564DA84213D14FF601
:10513000F7752A40CD892A434FF6FB752A408D88A2
:105140002A434FF6FF652B404FF6FF552B400D8A43
:105150002B434D8A2B43838004838D6845630284EF
:1051600070BD70B5002400220023058C4FF6EF7649
:1051700035400584028C8388048B48F6FF752C40EB
:105180004FF6FF452C400D884FF6FF7606EA0525C1
:105190002C434FF6DF752A408D8906EA05152A4310
:1051A0004D8806EA05152A43304DA84202D0354DF8
:1051B000A8421DD14FF67F752A40CD894FF6FF7664
:1051C00006EA05152A434FF6BF752A408D8806EA80
:1051D00005152A434FF6FF352B404FF2FF752B4044
:1051E0000D8A06EA85052B434D8A06EA85052B4381
:1051F000838004838D688563028470BD70B500244C
:1052000000220023058C4FF6FF6635400584028C92
:105210008388848B4FF68F752C404FF6FC752C409D
:105220000D882C434FF6FF552A408D894FF6FF76A7
:1052300006EA05252A434D8806EA05252A430B4D33
:10524000A84202D00F4DA84238D14FF2FF752A4034
:10525000CD894FF6FF7606EA05252A434FF6FF353E
:105260002A408D8806EA05252A4319E000000140FE
:105270000004004000080040000C00400010004006
:10528000001400400004014000400140004401407F
:105290000048014000180040001C00400020004071
:1052A0004EF6FF752B404DF6FF752B400D8A06EA32
:1052B00005152B434D8A06EA05152B43838084830D
:1052C0008D68C563028470BD70B500220023002480
:1052D000058C4EF6FF7635400584038C8488828BDE
:1052E00048F6FF752A404FF6FF452A400D884FF6D5
:1052F000FF7606EA05252A434DF6FF752B408D897A
:1053000006EA05352B434D8806EA05352B43FE4D4D
:10531000A84202D0FD4DA84208D14BF6FF752C40A3
:105320000D8A4FF6FF7606EA85152C43848082832A
:105330008D680564038470BD0021018041808180F7
:1053400081608181C18101824182704770B50346CD
:10535000002000241846183001258D40ACB21D8C69
:10536000A5431D8409B108290AD100EB6100056835
:105370004FF68F76354005600568154305600FE0F0
:105380000D1FC5F34E052844056848F6FF763540E5
:10539000056005684FF6FF7606EA0226354305608C
:1053A00070BD4163704781637047C163704701649A
:1053B00070470A460021018B4FF68F731940114345
:1053C000018370470A460021018B48F6FF7319409C
:1053D0004FF6FF7303EA02231943018370470A461D
:1053E0000021818B4FF68F731940114381837047E1
:1053F0000A460021818B48F6FF7319404FF6FF7370
:1054000003EA02231943818370470A460021018B76
:105410004FF6F77319401143018370470A46002184
:10542000018B4FF2FF7319404FF6FF7303EA02231B
:105430001943018370470A460021818B4FF6F773A9
:1054400019401143818370470A460021818B4FF236
:10545000FF7319404FF6FF7303EA02231943818358
:1054600070470A460021018B4FF6FB731940114328
:10547000018370470A460021018B4FF6FF33194024
:105480004FF6FF7303EA02231943018370470A466C
:105490000021818B4FF6FB731940114381837047C4
:1054A0000A460021818B4FF6FF3319404FF6FF73F8
:1054B00003EA02231943818370470A460021018BC6
:1054C0004FF67F7319401143018370470A4600214C
:1054D000018BC1F30E014FF6FF7303EA0223194358
:1054E000018370470A460021818B4FF67F73194074
:1054F0001143818370470A460021818BC1F30E015D
:105500004FF6FF7303EA02231943818370470A466B
:105510000021018C4FF6FD7319401143018470473F
:105520000A460021018C4FF6F7731940114301849C
:1055300070470A460021018C4FF6DF7319404FF681
:10554000FF7303EA02131943018470470A460021DE
:10555000018C4FF67F7319404FF6FF7303EA021375
:105560001943018470470A460021018C4FF6FF530E
:1055700019404FF6FF7303EA022319430184704771
:105580000A460021018C4FF2FF7319404FF6FF735A
:1055900003EA02231943018470470A460021018C63
:1055A0004DF6FF7319404FF6FF7303EA02331943B8
:1055B0000184704730B5002301248C40A3B2048CD1
:1055C0009C430484048C02FA01F5ADB22C4304849C
:1055D00030BD30B5002304248C40A3B2048C9C431E
:1055E0000484048C02FA01F5ADB22C43048430BD6E
:1055F000828B4FF2FF331A408283828B4FF6FF7308
:1056000003EA01231A4382837047F0B50C4615461E
:10561000002100220026078C4EF6FF7C07EA0C07CB
:105620000784818B028C4FF6FF7707EA043640F639
:10563000FF4739404FF6FF7707EA052739434FF612
:10564000FF7707EA0337394345F6FF773A4046F4D8
:1056500080573A4381830284F0BD828B4FF6F37307
:105660001A408283828B0A4382837047F0B50C46CE
:105670001546002100220026078C4FF6FF6C07EA32
:105680000C070784818B028C4FF6FF7707EA04260C
:105690004FF60C7739404FF6FF7707EA03172F4391
:1056A00039434FF2FF573A4046F480773A438183BB
:1056B0000284F0BD028B4FF2FF331A400283028B4B
:1056C0004FF6FF7303EA01231A4302837047F0B5D4
:1056D0000C461546002100220026078C4FF6EF7C71
:1056E00007EA0C070784018B028C4FF6FF7707EA65
:1056F000041640F6FF4739404FF6FF7707EA0337B5
:1057000039434FF6FF7703E00000014000040140F9
:1057100007EA052739434FF65F773A4046F010070E
:105720003A4301830284F0BD028B4FF6F3731A40B3
:105730000283028B0A4302837047F0B50C4615467C
:1057400000210022068C4FF6FE773E400684018B36
:10575000028C4FF60C7631407E1C06EA03162E436F
:1057600031434FF6F576324044F00106324301836F
:105770000284F0BD70B505460C46208850B92389D7
:10578000A28861882846FFF7D8FFE1882846FFF7FE
:10579000CBFF25E0208804280AD12389A2886188CC
:1057A0002846FFF794FFE1882846FFF783FF17E0BC
:1057B000208808280AD12389A28861882846FFF713
:1057C00055FFE1882846FFF748FF09E02389A288B2
:1057D00061882846FFF719FFE1882846FFF708FF90
:1057E00070BD002101804180012181800021C180A4
:1057F000018170472DE9F04105460C46002601273E
:10580000608808B9022600E00026A088012801D19E
:10581000022700E001272088A0B92389A288618897
:105820002846FFF78AFFE1882846FFF77DFF238996
:105830003A4631462846FFF74AFFE1882846FFF7F7
:1058400039FF13E02389A28861882846FFF73FFFCC
:10585000E1882846FFF72EFF23893A46314628463D
:10586000FFF76BFFE1882846FFF75EFFBDE8F08198
:105870000146486B70470146886B70470146C86B0C
:1058800070470146086C70470A884B881A438B881A
:105890001A43CB881A430B891A434B891A438B89C5
:1058A0001A43A0F844207047002101804180818084
:1058B000C180018141818181704731B1B0F84420BC
:1058C00042F40042A0F8442005E0B0F84420C2F3BE
:1058D0000E02A0F84420704721B1828842F00402F1
:1058E000828004E082884FF6FB731A408280704702
:1058F00021B1828842F00102828004E082884FF662
:10590000FE731A40828070471AB183890B438381EA
:1059100002E083898B43838170478182704702460E
:105920000020138A0B400BB1012000E000207047DB
:10593000CA430282704730B502460020002300248B
:10594000158A05EA0103958905EA010413B10CB132
:10595000012000E0002030BDCA430282704741EAC6
:105960000203A0F8483070471AB183890B43838142
:1059700002E083898B438381704721B1828842F0A2
:105980000802828004E082884FF6F7731A40828012
:10599000704701894FF6F8721140018170470A463D
:1059A000002101894FF68F7319401143018170471F
:1059B00030B504460D4629462046FFF7F0FF208902
:1059C00040F00700208130BD2DE9F04104460D462E
:1059D00016461F46602D06D13B4601223146204621
:1059E000FFF775FE05E03B46012231462046FFF7F2
:1059F000A4FE29462046FFF7D2FF208940F0070089
:105A00002081BDE8F08130B50C4600210189C9B282
:105A10004FF6FF7505EA0325154325432943018108
:105A200030BD2DE9F04105460E4617469846002444
:105A300043463A4631462846FFF7E5FF2C894FF6A4
:105A4000F870044044F007044FF68F70044044F0AF
:105A500070042C81BDE8F081F0B504460D46164671
:105A60001F463B46324629462046FFF7CCFF208999
:105A700040F480402081F0BD82884FF68F731A4039
:105A8000828082880A438280704702894FF6F873C9
:105A90001A40028102890A430281704702894FF647
:105AA0007F731A40028102890A4302817047F0B570
:105AB0000C4615461E460021002200230189028B58
:105AC000038C4FF6F877394021434FF6FC473A40B4
:105AD00040F201173A434FF6DD773B404FF6FF7730
